{
  "contractName": "Reference",
  "abi": [
    {
      "inputs": [],
      "stateMutability": "nonpayable",
      "type": "constructor"
    },
    {
      "inputs": [],
      "name": "manager",
      "outputs": [
        {
          "internalType": "address",
          "name": "",
          "type": "address"
        }
      ],
      "stateMutability": "view",
      "type": "function",
      "constant": true
    },
    {
      "inputs": [
        {
          "internalType": "address",
          "name": "",
          "type": "address"
        }
      ],
      "name": "references",
      "outputs": [
        {
          "internalType": "string",
          "name": "",
          "type": "string"
        }
      ],
      "stateMutability": "view",
      "type": "function",
      "constant": true
    },
    {
      "inputs": [
        {
          "internalType": "address",
          "name": "",
          "type": "address"
        }
      ],
      "name": "users",
      "outputs": [
        {
          "internalType": "string",
          "name": "name",
          "type": "string"
        },
        {
          "internalType": "string",
          "name": "password",
          "type": "string"
        }
      ],
      "stateMutability": "view",
      "type": "function",
      "constant": true
    },
    {
      "inputs": [
        {
          "internalType": "uint256",
          "name": "a",
          "type": "uint256"
        },
        {
          "internalType": "uint256",
          "name": "b",
          "type": "uint256"
        }
      ],
      "name": "sum",
      "outputs": [
        {
          "internalType": "uint256",
          "name": "",
          "type": "uint256"
        }
      ],
      "stateMutability": "pure",
      "type": "function",
      "constant": true
    }
  ],
  "bytecode": "0x608060405234801561001057600080fd5b5033600260006101000a81548173ffffffffffffffffffffffffffffffffffffffff021916908373ffffffffffffffffffffffffffffffffffffffff16021790555061064c806100616000396000f3fe608060405234801561001057600080fd5b506004361061004c5760003560e01c8063481c6a75146100515780635c8ed2f31461006f578063a87430ba1461009f578063cad0899b146100d0575b600080fd5b610059610100565b6040516100669190610351565b60405180910390f35b6100896004803603810190610084919061039d565b610126565b604051610096919061045a565b60405180910390f35b6100b960048036038101906100b4919061039d565b6101c6565b6040516100c792919061047c565b60405180910390f35b6100ea60048036038101906100e591906104e9565b6102fa565b6040516100f79190610538565b60405180910390f35b600260009054906101000a900473ffffffffffffffffffffffffffffffffffffffff1681565b6001602052806000526040600020600091509050805461014590610582565b80601f016020809104026020016040519081016040528092919081815260200182805461017190610582565b80156101be5780601f10610193576101008083540402835291602001916101be565b820191906000526020600020905b8154815290600101906020018083116101a157829003601f168201915b505050505081565b60006020528060005260406000206000915090508060000180546101e990610582565b80601f016020809104026020016040519081016040528092919081815260200182805461021590610582565b80156102625780601f1061023757610100808354040283529160200191610262565b820191906000526020600020905b81548152906001019060200180831161024557829003601f168201915b50505050509080600101805461027790610582565b80601f01602080910402602001604051908101604052809291908181526020018280546102a390610582565b80156102f05780601f106102c5576101008083540402835291602001916102f0565b820191906000526020600020905b8154815290600101906020018083116102d357829003601f168201915b5050505050905082565b6000818361030891906105e2565b905092915050565b600073ffffffffffffffffffffffffffffffffffffffff82169050919050565b600061033b82610310565b9050919050565b61034b81610330565b82525050565b60006020820190506103666000830184610342565b92915050565b600080fd5b61037a81610330565b811461038557600080fd5b50565b60008135905061039781610371565b92915050565b6000602082840312156103b3576103b261036c565b5b60006103c184828501610388565b91505092915050565b600081519050919050565b600082825260208201905092915050565b60005b838110156104045780820151818401526020810190506103e9565b60008484015250505050565b6000601f19601f8301169050919050565b600061042c826103ca565b61043681856103d5565b93506104468185602086016103e6565b61044f81610410565b840191505092915050565b600060208201905081810360008301526104748184610421565b905092915050565b600060408201905081810360008301526104968185610421565b905081810360208301526104aa8184610421565b90509392505050565b6000819050919050565b6104c6816104b3565b81146104d157600080fd5b50565b6000813590506104e3816104bd565b92915050565b60008060408385031215610500576104ff61036c565b5b600061050e858286016104d4565b925050602061051f858286016104d4565b9150509250929050565b610532816104b3565b82525050565b600060208201905061054d6000830184610529565b92915050565b7f4e487b7100000000000000000000000000000000000000000000000000000000600052602260045260246000fd5b6000600282049050600182168061059a57607f821691505b6020821081036105ad576105ac610553565b5b50919050565b7f4e487b7100000000000000000000000000000000000000000000000000000000600052601160045260246000fd5b60006105ed826104b3565b91506105f8836104b3565b92508282019050808211156106105761060f6105b3565b5b9291505056fea2646970667358221220a90ba13f4ba534e7717e55ebefded053a62ab910e397bc247070dfec781ceaa164736f6c63430008100033",
  "immutableReferences": {},
  "source": "// SPDX-License-Identifier: GPL-3.0\r\npragma solidity >=0.5.0 <0.9.0;\r\n\r\ncontract Reference {\r\n    struct User {\r\n        string name;\r\n        string password;\r\n    }\r\n\r\n    mapping(address => User) public users;\r\n    mapping(address => string) public references;\r\n    address public manager;\r\n\r\n    constructor() {\r\n        manager = msg.sender;\r\n    }\r\n\r\n    function sum(uint256 a, uint256 b) public pure returns (uint256) {\r\n        return a + b;\r\n    }\r\n}\r\n",
  "sourcePath": "C:\\Users\\b_bri\\Documents\\.higia\\backend-smartcontracts\\src\\contracts\\reference.sol",
  "compiler": {
    "name": "solc",
    "version": "0.8.16+commit.07a7930e.Emscripten.clang"
  },
  "schemaVersion": "3.4.9",
  "updatedAt": "2022-08-14T17:48:27.412Z",
  "networkType": "ethereum",
  "devdoc": {
    "kind": "dev",
    "methods": {},
    "version": 1
  },
  "userdoc": {
    "kind": "user",
    "methods": {},
    "version": 1
  }
}